{
  "_format": "hh-sol-artifact-1",
  "contractName": "Arbitrage",
  "sourceName": "contracts/Arbitrage.sol",
  "abi": [
    {
      "inputs": [
        {
          "internalType": "address",
          "name": "_sRouter",
          "type": "address"
        },
        {
          "internalType": "address",
          "name": "_uRouter",
          "type": "address"
        }
      ],
      "stateMutability": "nonpayable",
      "type": "constructor"
    },
    {
      "anonymous": false,
      "inputs": [
        {
          "indexed": false,
          "internalType": "address",
          "name": "sender",
          "type": "address"
        },
        {
          "indexed": false,
          "internalType": "address",
          "name": "token",
          "type": "address"
        },
        {
          "indexed": false,
          "internalType": "uint256",
          "name": "amount",
          "type": "uint256"
        }
      ],
      "name": "LoanedReturned",
      "type": "event"
    },
    {
      "anonymous": false,
      "inputs": [
        {
          "indexed": false,
          "internalType": "uint256",
          "name": "amountIn",
          "type": "uint256"
        },
        {
          "indexed": false,
          "internalType": "uint256",
          "name": "amountOut",
          "type": "uint256"
        },
        {
          "indexed": false,
          "internalType": "address",
          "name": "path0",
          "type": "address"
        },
        {
          "indexed": false,
          "internalType": "address",
          "name": "path1",
          "type": "address"
        }
      ],
      "name": "SwappedOnSushiswap",
      "type": "event"
    },
    {
      "anonymous": false,
      "inputs": [
        {
          "indexed": false,
          "internalType": "uint256",
          "name": "amountIn",
          "type": "uint256"
        },
        {
          "indexed": false,
          "internalType": "uint256",
          "name": "amountOut",
          "type": "uint256"
        },
        {
          "indexed": false,
          "internalType": "address",
          "name": "path0",
          "type": "address"
        },
        {
          "indexed": false,
          "internalType": "address",
          "name": "path1",
          "type": "address"
        }
      ],
      "name": "SwappedOnUniswap",
      "type": "event"
    },
    {
      "anonymous": false,
      "inputs": [
        {
          "indexed": false,
          "internalType": "address",
          "name": "sender",
          "type": "address"
        },
        {
          "indexed": false,
          "internalType": "address",
          "name": "token",
          "type": "address"
        },
        {
          "indexed": false,
          "internalType": "uint256",
          "name": "amount",
          "type": "uint256"
        },
        {
          "indexed": false,
          "internalType": "bytes",
          "name": "data",
          "type": "bytes"
        }
      ],
      "name": "TradeExecuted",
      "type": "event"
    },
    {
      "inputs": [
        {
          "internalType": "bool",
          "name": "_startOnUniswap",
          "type": "bool"
        },
        {
          "internalType": "address",
          "name": "_token0",
          "type": "address"
        },
        {
          "internalType": "address",
          "name": "_token1",
          "type": "address"
        },
        {
          "internalType": "uint256",
          "name": "_flashAmount",
          "type": "uint256"
        }
      ],
      "name": "executeTrade",
      "outputs": [],
      "stateMutability": "nonpayable",
      "type": "function"
    },
    {
      "inputs": [],
      "name": "owner",
      "outputs": [
        {
          "internalType": "address",
          "name": "",
          "type": "address"
        }
      ],
      "stateMutability": "view",
      "type": "function"
    },
    {
      "inputs": [
        {
          "internalType": "contract IERC20[]",
          "name": "tokens",
          "type": "address[]"
        },
        {
          "internalType": "uint256[]",
          "name": "amounts",
          "type": "uint256[]"
        },
        {
          "internalType": "uint256[]",
          "name": "feeAmounts",
          "type": "uint256[]"
        },
        {
          "internalType": "bytes",
          "name": "userData",
          "type": "bytes"
        }
      ],
      "name": "receiveFlashLoan",
      "outputs": [],
      "stateMutability": "nonpayable",
      "type": "function"
    },
    {
      "inputs": [],
      "name": "sRouter",
      "outputs": [
        {
          "internalType": "contract IUniswapV2Router02",
          "name": "",
          "type": "address"
        }
      ],
      "stateMutability": "view",
      "type": "function"
    },
    {
      "inputs": [],
      "name": "uRouter",
      "outputs": [
        {
          "internalType": "contract IUniswapV2Router02",
          "name": "",
          "type": "address"
        }
      ],
      "stateMutability": "view",
      "type": "function"
    }
  ],
  "bytecode": "0x60c06040523480156200001157600080fd5b5060405162001d9c38038062001d9c833981810160405281019062000037919062000151565b8173ffffffffffffffffffffffffffffffffffffffff1660808173ffffffffffffffffffffffffffffffffffffffff16815250508073ffffffffffffffffffffffffffffffffffffffff1660a08173ffffffffffffffffffffffffffffffffffffffff1681525050336000806101000a81548173ffffffffffffffffffffffffffffffffffffffff021916908373ffffffffffffffffffffffffffffffffffffffff160217905550505062000198565b600080fd5b600073ffffffffffffffffffffffffffffffffffffffff82169050919050565b60006200011982620000ec565b9050919050565b6200012b816200010c565b81146200013757600080fd5b50565b6000815190506200014b8162000120565b92915050565b600080604083850312156200016b576200016a620000e7565b5b60006200017b858286016200013a565b92505060206200018e858286016200013a565b9150509250929050565b60805160a051611bc3620001d960003960008181610313015281816109620152610a2301526000818160f001528181610b890152610c4a0152611bc36000f3fe608060405234801561001057600080fd5b50600436106100575760003560e01c8063017c64b01461005c5780631395dd231461007a5780635cf39049146100965780638da5cb5b146100b4578063f04f2707146100d2575b600080fd5b6100646100ee565b6040516100719190610df6565b60405180910390f35b610094600480360381019061008f9190610ed1565b610112565b005b61009e610311565b6040516100ab9190610df6565b60405180910390f35b6100bc610335565b6040516100c99190610f47565b60405180910390f35b6100ec60048036038101906100e79190611271565b610359565b005b7f000000000000000000000000000000000000000000000000000000000000000081565b600084848460405160200161012993929190611357565b60405160208183030381529060405290506000600167ffffffffffffffff81111561015757610156610f78565b5b6040519080825280602002602001820160405280156101855781602001602082028036833780820191505090505b509050848160008151811061019d5761019c61138e565b5b602002602001019073ffffffffffffffffffffffffffffffffffffffff16908173ffffffffffffffffffffffffffffffffffffffff16815250506000600167ffffffffffffffff8111156101f4576101f3610f78565b5b6040519080825280602002602001820160405280156102225781602001602082028036833780820191505090505b509050838160008151811061023a5761023961138e565b5b60200260200101818152505073ba12222222228d8ba445958a75a0704d566bf2c873ffffffffffffffffffffffffffffffffffffffff16635c38449e308484876040518563ffffffff1660e01b815260040161029994939291906115eb565b600060405180830381600087803b1580156102b357600080fd5b505af11580156102c7573d6000803e3d6000fd5b505050507fbc08154b32c714572d2b71de99aa454ac3dc272fa8314b91d111624f0f97a81c338786866040516103009493929190611654565b60405180910390a150505050505050565b7f000000000000000000000000000000000000000000000000000000000000000081565b60008054906101000a900473ffffffffffffffffffffffffffffffffffffffff1681565b73ba12222222228d8ba445958a75a0704d566bf2c873ffffffffffffffffffffffffffffffffffffffff163373ffffffffffffffffffffffffffffffffffffffff16146103a557600080fd5b6000836000815181106103bb576103ba61138e565b5b602002602001015190506000806000848060200190518101906103de91906116f3565b9250925092506000600267ffffffffffffffff81111561040157610400610f78565b5b60405190808252806020026020018201604052801561042f5781602001602082028036833780820191505090505b50905082816000815181106104475761044661138e565b5b602002602001019073ffffffffffffffffffffffffffffffffffffffff16908173ffffffffffffffffffffffffffffffffffffffff168152505081816001815181106104965761049561138e565b5b602002602001019073ffffffffffffffffffffffffffffffffffffffff16908173ffffffffffffffffffffffffffffffffffffffff16815250508315610609576104e281866000610929565b81816000815181106104f7576104f661138e565b5b602002602001019073ffffffffffffffffffffffffffffffffffffffff16908173ffffffffffffffffffffffffffffffffffffffff168152505082816001815181106105465761054561138e565b5b602002602001019073ffffffffffffffffffffffffffffffffffffffff16908173ffffffffffffffffffffffffffffffffffffffff1681525050610604818373ffffffffffffffffffffffffffffffffffffffff166370a08231306040518263ffffffff1660e01b81526004016105bd9190610f47565b602060405180830381865afa1580156105da573d6000803e3d6000fd5b505050506040513d601f19601f820116820180604052508101906105fe919061175b565b87610b50565b610738565b61061581866000610b50565b818160008151811061062a5761062961138e565b5b602002602001019073ffffffffffffffffffffffffffffffffffffffff16908173ffffffffffffffffffffffffffffffffffffffff168152505082816001815181106106795761067861138e565b5b602002602001019073ffffffffffffffffffffffffffffffffffffffff16908173ffffffffffffffffffffffffffffffffffffffff1681525050610737818373ffffffffffffffffffffffffffffffffffffffff166370a08231306040518263ffffffff1660e01b81526004016106f09190610f47565b602060405180830381865afa15801561070d573d6000803e3d6000fd5b505050506040513d601f19601f82011682018060405250810190610731919061175b565b87610929565b5b8273ffffffffffffffffffffffffffffffffffffffff1663a9059cbb73ba12222222228d8ba445958a75a0704d566bf2c8876040518363ffffffff1660e01b8152600401610787929190611788565b6020604051808303816000875af11580156107a6573d6000803e3d6000fd5b505050506040513d601f19601f820116820180604052508101906107ca91906117b1565b508273ffffffffffffffffffffffffffffffffffffffff1663a9059cbb60008054906101000a900473ffffffffffffffffffffffffffffffffffffffff168573ffffffffffffffffffffffffffffffffffffffff166370a08231306040518263ffffffff1660e01b81526004016108419190610f47565b602060405180830381865afa15801561085e573d6000803e3d6000fd5b505050506040513d601f19601f82011682018060405250810190610882919061175b565b6040518363ffffffff1660e01b815260040161089f929190611788565b6020604051808303816000875af11580156108be573d6000803e3d6000fd5b505050506040513d601f19601f820116820180604052508101906108e291906117b1565b507f3931de709f834e3c094757d8879ea96bacc21f497af9f966091e950137d6b775338487604051610916939291906117de565b60405180910390a1505050505050505050565b8260008151811061093d5761093c61138e565b5b602002602001015173ffffffffffffffffffffffffffffffffffffffff1663095ea7b37f0000000000000000000000000000000000000000000000000000000000000000846040518363ffffffff1660e01b815260040161099f929190611788565b6020604051808303816000875af11580156109be573d6000803e3d6000fd5b505050506040513d601f19601f820116820180604052508101906109e291906117b1565b610a21576040517f08c379a0000000000000000000000000000000000000000000000000000000008152600401610a1890611872565b60405180910390fd5b7f000000000000000000000000000000000000000000000000000000000000000073ffffffffffffffffffffffffffffffffffffffff166338ed1739838386306104b042610a6f91906118c1565b6040518663ffffffff1660e01b8152600401610a8f9594939291906119a2565b6000604051808303816000875af1158015610aae573d6000803e3d6000fd5b505050506040513d6000823e3d601f19601f82011682018060405250810190610ad79190611a93565b507fba449dec4e0cdb46f4c0df435aeba7a018f35f2cdc4f3b160410be52dbbe207c828285600081518110610b0f57610b0e61138e565b5b602002602001015186600181518110610b2b57610b2a61138e565b5b6020026020010151604051610b439493929190611adc565b60405180910390a1505050565b82600081518110610b6457610b6361138e565b5b602002602001015173ffffffffffffffffffffffffffffffffffffffff1663095ea7b37f0000000000000000000000000000000000000000000000000000000000000000846040518363ffffffff1660e01b8152600401610bc6929190611788565b6020604051808303816000875af1158015610be5573d6000803e3d6000fd5b505050506040513d601f19601f82011682018060405250810190610c0991906117b1565b610c48576040517f08c379a0000000000000000000000000000000000000000000000000000000008152600401610c3f90611b6d565b60405180910390fd5b7f000000000000000000000000000000000000000000000000000000000000000073ffffffffffffffffffffffffffffffffffffffff166338ed1739838386306104b042610c9691906118c1565b6040518663ffffffff1660e01b8152600401610cb69594939291906119a2565b6000604051808303816000875af1158015610cd5573d6000803e3d6000fd5b505050506040513d6000823e3d601f19601f82011682018060405250810190610cfe9190611a93565b507fe2986cb1b1c90b4738b5e68ac912cc7755496a2534d44578990af36848d6e5da828285600081518110610d3657610d3561138e565b5b602002602001015186600181518110610d5257610d5161138e565b5b6020026020010151604051610d6a9493929190611adc565b60405180910390a1505050565b600073ffffffffffffffffffffffffffffffffffffffff82169050919050565b6000819050919050565b6000610dbc610db7610db284610d77565b610d97565b610d77565b9050919050565b6000610dce82610da1565b9050919050565b6000610de082610dc3565b9050919050565b610df081610dd5565b82525050565b6000602082019050610e0b6000830184610de7565b92915050565b6000604051905090565b600080fd5b600080fd5b60008115159050919050565b610e3a81610e25565b8114610e4557600080fd5b50565b600081359050610e5781610e31565b92915050565b6000610e6882610d77565b9050919050565b610e7881610e5d565b8114610e8357600080fd5b50565b600081359050610e9581610e6f565b92915050565b6000819050919050565b610eae81610e9b565b8114610eb957600080fd5b50565b600081359050610ecb81610ea5565b92915050565b60008060008060808587031215610eeb57610eea610e1b565b5b6000610ef987828801610e48565b9450506020610f0a87828801610e86565b9350506040610f1b87828801610e86565b9250506060610f2c87828801610ebc565b91505092959194509250565b610f4181610e5d565b82525050565b6000602082019050610f5c6000830184610f38565b92915050565b600080fd5b6000601f19601f8301169050919050565b7f4e487b7100000000000000000000000000000000000000000000000000000000600052604160045260246000fd5b610fb082610f67565b810181811067ffffffffffffffff82111715610fcf57610fce610f78565b5b80604052505050565b6000610fe2610e11565b9050610fee8282610fa7565b919050565b600067ffffffffffffffff82111561100e5761100d610f78565b5b602082029050602081019050919050565b600080fd5b600061102f82610e5d565b9050919050565b61103f81611024565b811461104a57600080fd5b50565b60008135905061105c81611036565b92915050565b600061107561107084610ff3565b610fd8565b905080838252602082019050602084028301858111156110985761109761101f565b5b835b818110156110c157806110ad888261104d565b84526020840193505060208101905061109a565b5050509392505050565b600082601f8301126110e0576110df610f62565b5b81356110f0848260208601611062565b91505092915050565b600067ffffffffffffffff82111561111457611113610f78565b5b602082029050602081019050919050565b6000611138611133846110f9565b610fd8565b9050808382526020820190506020840283018581111561115b5761115a61101f565b5b835b8181101561118457806111708882610ebc565b84526020840193505060208101905061115d565b5050509392505050565b600082601f8301126111a3576111a2610f62565b5b81356111b3848260208601611125565b91505092915050565b600080fd5b600067ffffffffffffffff8211156111dc576111db610f78565b5b6111e582610f67565b9050602081019050919050565b82818337600083830152505050565b600061121461120f846111c1565b610fd8565b9050828152602081018484840111156112305761122f6111bc565b5b61123b8482856111f2565b509392505050565b600082601f83011261125857611257610f62565b5b8135611268848260208601611201565b91505092915050565b6000806000806080858703121561128b5761128a610e1b565b5b600085013567ffffffffffffffff8111156112a9576112a8610e20565b5b6112b5878288016110cb565b945050602085013567ffffffffffffffff8111156112d6576112d5610e20565b5b6112e28782880161118e565b935050604085013567ffffffffffffffff81111561130357611302610e20565b5b61130f8782880161118e565b925050606085013567ffffffffffffffff8111156113305761132f610e20565b5b61133c87828801611243565b91505092959194509250565b61135181610e25565b82525050565b600060608201905061136c6000830186611348565b6113796020830185610f38565b6113866040830184610f38565b949350505050565b7f4e487b7100000000000000000000000000000000000000000000000000000000600052603260045260246000fd5b60006113c882610dc3565b9050919050565b6113d8816113bd565b82525050565b600081519050919050565b600082825260208201905092915050565b6000819050602082019050919050565b600061141582610dc3565b9050919050565b6114258161140a565b82525050565b6000611437838361141c565b60208301905092915050565b6000602082019050919050565b600061145b826113de565b61146581856113e9565b9350611470836113fa565b8060005b838110156114a1578151611488888261142b565b975061149383611443565b925050600181019050611474565b5085935050505092915050565b600081519050919050565b600082825260208201905092915050565b6000819050602082019050919050565b6114e381610e9b565b82525050565b60006114f583836114da565b60208301905092915050565b6000602082019050919050565b6000611519826114ae565b61152381856114b9565b935061152e836114ca565b8060005b8381101561155f57815161154688826114e9565b975061155183611501565b925050600181019050611532565b5085935050505092915050565b600081519050919050565b600082825260208201905092915050565b60005b838110156115a657808201518184015260208101905061158b565b60008484015250505050565b60006115bd8261156c565b6115c78185611577565b93506115d7818560208601611588565b6115e081610f67565b840191505092915050565b600060808201905061160060008301876113cf565b81810360208301526116128186611450565b90508181036040830152611626818561150e565b9050818103606083015261163a81846115b2565b905095945050505050565b61164e81610e9b565b82525050565b60006080820190506116696000830187610f38565b6116766020830186610f38565b6116836040830185611645565b818103606083015261169581846115b2565b905095945050505050565b6000815190506116af81610e31565b92915050565b60006116c082610d77565b9050919050565b6116d0816116b5565b81146116db57600080fd5b50565b6000815190506116ed816116c7565b92915050565b60008060006060848603121561170c5761170b610e1b565b5b600061171a868287016116a0565b935050602061172b868287016116de565b925050604061173c868287016116de565b9150509250925092565b60008151905061175581610ea5565b92915050565b60006020828403121561177157611770610e1b565b5b600061177f84828501611746565b91505092915050565b600060408201905061179d6000830185610f38565b6117aa6020830184611645565b9392505050565b6000602082840312156117c7576117c6610e1b565b5b60006117d5848285016116a0565b91505092915050565b60006060820190506117f36000830186610f38565b6118006020830185610f38565b61180d6040830184611645565b949350505050565b600082825260208201905092915050565b7f556e697377617020617070726f76616c206661696c65642e0000000000000000600082015250565b600061185c601883611815565b915061186782611826565b602082019050919050565b6000602082019050818103600083015261188b8161184f565b9050919050565b7f4e487b7100000000000000000000000000000000000000000000000000000000600052601160045260246000fd5b60006118cc82610e9b565b91506118d783610e9b565b92508282019050808211156118ef576118ee611892565b5b92915050565b600081519050919050565b6000819050602082019050919050565b61191981610e5d565b82525050565b600061192b8383611910565b60208301905092915050565b6000602082019050919050565b600061194f826118f5565b61195981856113e9565b935061196483611900565b8060005b8381101561199557815161197c888261191f565b975061198783611937565b925050600181019050611968565b5085935050505092915050565b600060a0820190506119b76000830188611645565b6119c46020830187611645565b81810360408301526119d68186611944565b90506119e56060830185610f38565b6119f26080830184611645565b9695505050505050565b6000611a0f611a0a846110f9565b610fd8565b90508083825260208201905060208402830185811115611a3257611a3161101f565b5b835b81811015611a5b5780611a478882611746565b845260208401935050602081019050611a34565b5050509392505050565b600082601f830112611a7a57611a79610f62565b5b8151611a8a8482602086016119fc565b91505092915050565b600060208284031215611aa957611aa8610e1b565b5b600082015167ffffffffffffffff811115611ac757611ac6610e20565b5b611ad384828501611a65565b91505092915050565b6000608082019050611af16000830187611645565b611afe6020830186611645565b611b0b6040830185610f38565b611b186060830184610f38565b95945050505050565b7f53757368697377617020617070726f76616c206661696c65642e000000000000600082015250565b6000611b57601a83611815565b9150611b6282611b21565b602082019050919050565b60006020820190508181036000830152611b8681611b4a565b905091905056fea264697066735822122044d94bba24859130a5c962b07a47627f97225c41eb299e6bb7e9b672211f72d464736f6c63430008120033",
  "linkReferences": {},
  "deployedLinkReferences": {}
}